{
  "contractName": "Remittance",
  "abi": [
    {
      "constant": true,
      "inputs": [
        {
          "name": "",
          "type": "address"
        }
      ],
      "name": "balances",
      "outputs": [
        {
          "name": "",
          "type": "uint256"
        }
      ],
      "payable": false,
      "stateMutability": "view",
      "type": "function"
    },
    {
      "constant": true,
      "inputs": [],
      "name": "puzzle",
      "outputs": [
        {
          "name": "",
          "type": "bytes32"
        }
      ],
      "payable": false,
      "stateMutability": "view",
      "type": "function"
    },
    {
      "constant": true,
      "inputs": [],
      "name": "recipient",
      "outputs": [
        {
          "name": "",
          "type": "address"
        }
      ],
      "payable": false,
      "stateMutability": "view",
      "type": "function"
    },
    {
      "constant": true,
      "inputs": [],
      "name": "isPuzzleSolved",
      "outputs": [
        {
          "name": "",
          "type": "bool"
        }
      ],
      "payable": false,
      "stateMutability": "view",
      "type": "function"
    },
    {
      "constant": true,
      "inputs": [],
      "name": "owner",
      "outputs": [
        {
          "name": "",
          "type": "address"
        }
      ],
      "payable": false,
      "stateMutability": "view",
      "type": "function"
    },
    {
      "inputs": [
        {
          "name": "_password",
          "type": "bytes32"
        },
        {
          "name": "_recipient",
          "type": "address"
        }
      ],
      "payable": true,
      "stateMutability": "payable",
      "type": "constructor"
    },
    {
      "payable": false,
      "stateMutability": "nonpayable",
      "type": "fallback"
    },
    {
      "anonymous": false,
      "inputs": [
        {
          "indexed": true,
          "name": "by",
          "type": "address"
        },
        {
          "indexed": true,
          "name": "recipient",
          "type": "address"
        },
        {
          "indexed": false,
          "name": "amount",
          "type": "uint256"
        },
        {
          "indexed": false,
          "name": "puzzle",
          "type": "bytes32"
        }
      ],
      "name": "LogCreation",
      "type": "event"
    },
    {
      "anonymous": false,
      "inputs": [
        {
          "indexed": true,
          "name": "by",
          "type": "address"
        }
      ],
      "name": "LogKill",
      "type": "event"
    },
    {
      "anonymous": false,
      "inputs": [
        {
          "indexed": true,
          "name": "by",
          "type": "address"
        },
        {
          "indexed": false,
          "name": "amount",
          "type": "uint256"
        },
        {
          "indexed": false,
          "name": "puzzle",
          "type": "bytes32"
        }
      ],
      "name": "LogPuzzleSolve",
      "type": "event"
    },
    {
      "anonymous": false,
      "inputs": [
        {
          "indexed": true,
          "name": "from",
          "type": "address"
        },
        {
          "indexed": true,
          "name": "to",
          "type": "address"
        },
        {
          "indexed": false,
          "name": "amount",
          "type": "uint256"
        }
      ],
      "name": "LogWithdrawal",
      "type": "event"
    },
    {
      "constant": false,
      "inputs": [
        {
          "name": "_password",
          "type": "bytes32"
        }
      ],
      "name": "submitPassword",
      "outputs": [
        {
          "name": "success",
          "type": "bool"
        }
      ],
      "payable": false,
      "stateMutability": "nonpayable",
      "type": "function"
    },
    {
      "constant": true,
      "inputs": [
        {
          "name": "val",
          "type": "bytes32"
        }
      ],
      "name": "hashVal",
      "outputs": [
        {
          "name": "",
          "type": "bytes32"
        }
      ],
      "payable": false,
      "stateMutability": "view",
      "type": "function"
    },
    {
      "constant": false,
      "inputs": [],
      "name": "kill",
      "outputs": [],
      "payable": false,
      "stateMutability": "nonpayable",
      "type": "function"
    }
  ],
  "bytecode": "0x60606040526040516040806109b78339810160405280805190602001909190805190602001909190505060003411151561003857600080fd5b600073ffffffffffffffffffffffffffffffffffffffff163373ffffffffffffffffffffffffffffffffffffffff161415151561007457600080fd5b600073ffffffffffffffffffffffffffffffffffffffff168173ffffffffffffffffffffffffffffffffffffffff16141515156100b057600080fd5b6040518060000190506040518091039020600019168260001916141515156100d757600080fd5b336000806101000a81548173ffffffffffffffffffffffffffffffffffffffff021916908373ffffffffffffffffffffffffffffffffffffffff16021790555034600360008060009054906101000a900473ffffffffffffffffffffffffffffffffffffffff1673ffffffffffffffffffffffffffffffffffffffff1673ffffffffffffffffffffffffffffffffffffffff16815260200190815260200160002081905550816001816000191690555080600260016101000a81548173ffffffffffffffffffffffffffffffffffffffff021916908373ffffffffffffffffffffffffffffffffffffffff160217905550600260019054906101000a900473ffffffffffffffffffffffffffffffffffffffff1673ffffffffffffffffffffffffffffffffffffffff163373ffffffffffffffffffffffffffffffffffffffff167f538adc73b1722d013c8e1f762522b44a23532da26bb36e6fb6dcfcb22459acdc346001546040518083815260200182600019166000191681526020019250505060405180910390a35050610745806102726000396000f30060606040526004361061008e576000357c0100000000000000000000000000000000000000000000000000000000900463ffffffff16806327e235e31461009e578063399fac07146100eb57806341c0e1b51461011c57806366d003ac14610131578063726e7fd614610186578063881079c3146101c55780638da5cb5b146101f25780639131403b14610247575b341561009957600080fd5b600080fd5b34156100a957600080fd5b6100d5600480803573ffffffffffffffffffffffffffffffffffffffff1690602001909190505061028a565b6040518082815260200191505060405180910390f35b34156100f657600080fd5b6100fe6102a2565b60405180826000191660001916815260200191505060405180910390f35b341561012757600080fd5b61012f6102a8565b005b341561013c57600080fd5b610144610380565b604051808273ffffffffffffffffffffffffffffffffffffffff1673ffffffffffffffffffffffffffffffffffffffff16815260200191505060405180910390f35b341561019157600080fd5b6101ab6004808035600019169060200190919050506103a6565b604051808215151515815260200191505060405180910390f35b34156101d057600080fd5b6101d8610677565b604051808215151515815260200191505060405180910390f35b34156101fd57600080fd5b61020561068a565b604051808273ffffffffffffffffffffffffffffffffffffffff1673ffffffffffffffffffffffffffffffffffffffff16815260200191505060405180910390f35b341561025257600080fd5b61026c6004808035600019169060200190919050506106af565b60405180826000191660001916815260200191505060405180910390f35b60036020528060005260406000206000915090505481565b60015481565b6000809054906101000a900473ffffffffffffffffffffffffffffffffffffffff1673ffffffffffffffffffffffffffffffffffffffff163373ffffffffffffffffffffffffffffffffffffffff1614151561030357600080fd5b3373ffffffffffffffffffffffffffffffffffffffff167f7cd531232cf2a935531a2059a1021ee56cecce23e6f421cfa5cb1043fe101ab860405160405180910390a26000809054906101000a900473ffffffffffffffffffffffffffffffffffffffff1673ffffffffffffffffffffffffffffffffffffffff16ff5b600260019054906101000a900473ffffffffffffffffffffffffffffffffffffffff1681565b600080600260019054906101000a900473ffffffffffffffffffffffffffffffffffffffff1673ffffffffffffffffffffffffffffffffffffffff163373ffffffffffffffffffffffffffffffffffffffff1614151561040557600080fd5b600260009054906101000a900460ff1615151561042157600080fd5b6000602060ff1611151561043457600080fd5b60015460001916610444846106af565b6000191614151561045457600080fd5b6001600260006101000a81548160ff021916908315150217905550600360008060009054906101000a900473ffffffffffffffffffffffffffffffffffffffff1673ffffffffffffffffffffffffffffffffffffffff1673ffffffffffffffffffffffffffffffffffffffff1681526020019081526020016000205490506000600360008060009054906101000a900473ffffffffffffffffffffffffffffffffffffffff1673ffffffffffffffffffffffffffffffffffffffff1673ffffffffffffffffffffffffffffffffffffffff168152602001908152602001600020819055503373ffffffffffffffffffffffffffffffffffffffff167f8549692b3de4a45002eaad51822ce0b0e1c2e59a3367b9564c032f224346941c826001546040518083815260200182600019166000191681526020019250505060405180910390a26000811115156105a757600080fd5b3373ffffffffffffffffffffffffffffffffffffffff166000809054906101000a900473ffffffffffffffffffffffffffffffffffffffff1673ffffffffffffffffffffffffffffffffffffffff167f0ec497a8ae5b1ba29c60470ef651def995fac3deebbdcc56c47a4e5f51a4c2bd836040518082815260200191505060405180910390a33373ffffffffffffffffffffffffffffffffffffffff166108fc829081150290604051600060405180830381858888f19350505050151561066d57600080fd5b6001915050919050565b600260009054906101000a900460ff1681565b6000809054906101000a900473ffffffffffffffffffffffffffffffffffffffff1681565b600081336040518083600019166000191681526020018273ffffffffffffffffffffffffffffffffffffffff1673ffffffffffffffffffffffffffffffffffffffff166c0100000000000000000000000002815260140192505050604051809103902090509190505600a165627a7a723058200b696d3aaa2266c03c1b0de775dd37c88ea5b09d4eebd222d3469c118d72a3950029",
  "source": "pragma solidity ^0.4.18;\n\n// CHECK - EFFECS - INTEGRATIONS\n\ncontract Remittance {\n\n    address public owner;\n    bytes32 public puzzle;\n    bool public isPuzzleSolved;\n    address public recipient;\n\n\n    mapping(address => uint) public balances;\n\n    event LogCreation(address indexed by, address indexed recipient, uint amount, bytes32 puzzle);\n    event LogKill(address indexed by);\n    event LogPuzzleSolve(address indexed by, uint amount, bytes32 puzzle);\n    event LogWithdrawal(address indexed from, address indexed to, uint amount);\n\n    // Constructor\n    function Remittance(bytes32 _password, address _recipient)\n    payable\n    public {\n        require(msg.value > 0);\n        require(msg.sender != address(0x0));\n        require(_recipient != address(0x0));\n        require(_password != keccak256(''));\n\n        owner = msg.sender;\n        balances[owner] = msg.value;\n        puzzle = _password;\n        recipient = _recipient;\n\n        emit LogCreation(msg.sender, recipient, msg.value, puzzle);\n    }\n\n    // Fallback function\n    function()\n    public{\n        revert();\n    }\n\n    function submitPassword(bytes32 _password)\n    public\n    returns (bool success)\n    {\n        require(msg.sender == recipient);\n        require(!isPuzzleSolved);\n        require(_password.length > 0);\n\n        // Compare input with puzzle, attempt to solve it\n        require(hashVal(_password) == puzzle);\n\n        isPuzzleSolved = true;\n\n        // Unlock funds from owner->recipient\n        uint amount = balances[owner];\n        balances[owner] = 0;\n        emit LogPuzzleSolve(msg.sender, amount, puzzle);\n\n        // Start withdrawal\n        require(amount > 0);\n\n        emit LogWithdrawal(owner, msg.sender, amount);\n\n        msg.sender.transfer(amount);\n\n        return true;\n    }\n\n    // Lock-in hash function:\n    // If your function is declared as view or pure you can call it from javascript without paying gas,\n    // and it should return   the exact same result that when it is called from inside the contract\n    function hashVal(bytes32 val) public view returns (bytes32) {\n        return keccak256(val, msg.sender);\n    }\n\n    function kill()\n    public {\n        require(msg.sender == owner);\n\n        emit LogKill(msg.sender);\n\n        selfdestruct(owner);\n    }\n}\n",
  "sourcePath": "/Users/WWWillems/Dev/DAPPS/02-remittance-contract/contracts/Remittance.sol",
  "compiler": {
    "name": "solc",
    "version": "0.4.21+commit.dfe3193c.Emscripten.clang"
  },
  "schemaVersion": "2.0.0",
  "updatedAt": "2018-04-25T15:10:51.984Z"
}