{
  "contractName": "Remittance",
  "abi": [
    {
      "constant": true,
      "inputs": [
        {
          "name": "",
          "type": "address"
        }
      ],
      "name": "balances",
      "outputs": [
        {
          "name": "",
          "type": "uint256"
        }
      ],
      "payable": false,
      "stateMutability": "view",
      "type": "function"
    },
    {
      "constant": true,
      "inputs": [],
      "name": "puzzle",
      "outputs": [
        {
          "name": "",
          "type": "bytes32"
        }
      ],
      "payable": false,
      "stateMutability": "view",
      "type": "function"
    },
    {
      "constant": true,
      "inputs": [],
      "name": "isPuzzleSolved",
      "outputs": [
        {
          "name": "",
          "type": "bool"
        }
      ],
      "payable": false,
      "stateMutability": "view",
      "type": "function"
    },
    {
      "constant": true,
      "inputs": [],
      "name": "owner",
      "outputs": [
        {
          "name": "",
          "type": "address"
        }
      ],
      "payable": false,
      "stateMutability": "view",
      "type": "function"
    },
    {
      "inputs": [
        {
          "name": "puzzleblock1",
          "type": "string"
        },
        {
          "name": "puzzleblock2",
          "type": "string"
        }
      ],
      "payable": true,
      "stateMutability": "payable",
      "type": "constructor"
    },
    {
      "payable": false,
      "stateMutability": "nonpayable",
      "type": "fallback"
    },
    {
      "anonymous": false,
      "inputs": [
        {
          "indexed": true,
          "name": "by",
          "type": "address"
        },
        {
          "indexed": false,
          "name": "amount",
          "type": "uint256"
        }
      ],
      "name": "LogCreation",
      "type": "event"
    },
    {
      "anonymous": false,
      "inputs": [
        {
          "indexed": true,
          "name": "by",
          "type": "address"
        }
      ],
      "name": "LogKill",
      "type": "event"
    },
    {
      "anonymous": false,
      "inputs": [
        {
          "indexed": true,
          "name": "by",
          "type": "address"
        }
      ],
      "name": "LogPuzzleSolve",
      "type": "event"
    },
    {
      "anonymous": false,
      "inputs": [
        {
          "indexed": true,
          "name": "from",
          "type": "address"
        },
        {
          "indexed": true,
          "name": "to",
          "type": "address"
        },
        {
          "indexed": false,
          "name": "amount",
          "type": "uint256"
        }
      ],
      "name": "LogWithdrawal",
      "type": "event"
    },
    {
      "constant": false,
      "inputs": [
        {
          "name": "_puzzleblock1",
          "type": "string"
        },
        {
          "name": "_puzzleblock2",
          "type": "string"
        }
      ],
      "name": "submitPasswords",
      "outputs": [],
      "payable": false,
      "stateMutability": "nonpayable",
      "type": "function"
    },
    {
      "constant": false,
      "inputs": [],
      "name": "withdrawFunds",
      "outputs": [
        {
          "name": "success",
          "type": "bool"
        }
      ],
      "payable": false,
      "stateMutability": "nonpayable",
      "type": "function"
    },
    {
      "constant": false,
      "inputs": [],
      "name": "kill",
      "outputs": [],
      "payable": false,
      "stateMutability": "nonpayable",
      "type": "function"
    }
  ],
  "bytecode": "0x6060604052604051610c2e380380610c2e8339810160405280805182019190602001805182019190505060003411151561003857600080fd5b600073ffffffffffffffffffffffffffffffffffffffff163373ffffffffffffffffffffffffffffffffffffffff161415151561007457600080fd5b6000825111151561008457600080fd5b6000815111151561009457600080fd5b6100b18282610279640100000000026107c8176401000000009004565b1515156100bd57600080fd5b336000806101000a81548173ffffffffffffffffffffffffffffffffffffffff021916908373ffffffffffffffffffffffffffffffffffffffff16021790555034600360008060009054906101000a900473ffffffffffffffffffffffffffffffffffffffff1673ffffffffffffffffffffffffffffffffffffffff1673ffffffffffffffffffffffffffffffffffffffff1681526020019081526020016000208190555081816040518083805190602001908083835b6020831015156101995780518252602082019150602081019050602083039250610174565b6001836020036101000a03801982511681845116808217855250505050505090500182805190602001908083835b6020831015156101ec57805182526020820191506020810190506020830392506101c7565b6001836020036101000a038019825116818451168082178552505050505050905001925050506040518091039020600181600019169055503373ffffffffffffffffffffffffffffffffffffffff167f6d3add512fa635c40935b84c7df270a56e091dbfc08739b1d929d000e4a542a1346040518082815260200191505060405180910390a25050610352565b6000816040518082805190602001908083835b6020831015156102b1578051825260208201915060208101905060208303925061028c565b6001836020036101000a038019825116818451168082178552505050505050905001915050604051809103902060001916836040518082805190602001908083835b60208310151561031857805182526020820191506020810190506020830392506102f3565b6001836020036101000a03801982511681845116808217855250505050505090500191505060405180910390206000191614905092915050565b6108cd806103616000396000f300606060405260043610610083576000357c0100000000000000000000000000000000000000000000000000000000900463ffffffff1680631004fcfa1461009357806324600fc31461013357806327e235e314610160578063399fac07146101ad57806341c0e1b5146101de578063881079c3146101f35780638da5cb5b14610220575b341561008e57600080fd5b600080fd5b341561009e57600080fd5b610131600480803590602001908201803590602001908080601f0160208091040260200160405190810160405280939291908181526020018383808284378201915050505050509190803590602001908201803590602001908080601f01602080910402602001604051908101604052809392919081815260200183838082843782019150505050505091905050610275565b005b341561013e57600080fd5b61014661053c565b604051808215151515815260200191505060405180910390f35b341561016b57600080fd5b610197600480803573ffffffffffffffffffffffffffffffffffffffff1690602001909190505061069a565b6040518082815260200191505060405180910390f35b34156101b857600080fd5b6101c06106b2565b60405180826000191660001916815260200191505060405180910390f35b34156101e957600080fd5b6101f16106b8565b005b34156101fe57600080fd5b610206610790565b604051808215151515815260200191505060405180910390f35b341561022b57600080fd5b6102336107a3565b604051808273ffffffffffffffffffffffffffffffffffffffff1673ffffffffffffffffffffffffffffffffffffffff16815260200191505060405180910390f35b6000600260009054906101000a900460ff1615151561029057fe5b600073ffffffffffffffffffffffffffffffffffffffff163373ffffffffffffffffffffffffffffffffffffffff16141515156102cc57600080fd5b600083511115156102dc57600080fd5b600082511115156102ec57600080fd5b6102f683836107c8565b15151561030257600080fd5b6001546000191683836040518083805190602001908083835b602083101515610340578051825260208201915060208101905060208303925061031b565b6001836020036101000a03801982511681845116808217855250505050505090500182805190602001908083835b602083101515610393578051825260208201915060208101905060208303925061036e565b6001836020036101000a038019825116818451168082178552505050505050905001925050506040518091039020600019161415610537576001600260006101000a81548160ff021916908315150217905550600360008060009054906101000a900473ffffffffffffffffffffffffffffffffffffffff1673ffffffffffffffffffffffffffffffffffffffff1673ffffffffffffffffffffffffffffffffffffffff1681526020019081526020016000205490506000600360008060009054906101000a900473ffffffffffffffffffffffffffffffffffffffff1673ffffffffffffffffffffffffffffffffffffffff1673ffffffffffffffffffffffffffffffffffffffff1681526020019081526020016000208190555080600360003373ffffffffffffffffffffffffffffffffffffffff1673ffffffffffffffffffffffffffffffffffffffff168152602001908152602001600020819055503373ffffffffffffffffffffffffffffffffffffffff167ffe7a0e1c0b2a1c652056a415840363037be32b4b7899b65ce8c526cd1c58429960405160405180910390a25b505050565b600080600260009054906101000a900460ff16151561055757fe5b600360003373ffffffffffffffffffffffffffffffffffffffff1673ffffffffffffffffffffffffffffffffffffffff1681526020019081526020016000205490506000811115156105a857600080fd5b6000600360003373ffffffffffffffffffffffffffffffffffffffff1673ffffffffffffffffffffffffffffffffffffffff168152602001908152602001600020819055503373ffffffffffffffffffffffffffffffffffffffff163373ffffffffffffffffffffffffffffffffffffffff167f0ec497a8ae5b1ba29c60470ef651def995fac3deebbdcc56c47a4e5f51a4c2bd836040518082815260200191505060405180910390a33373ffffffffffffffffffffffffffffffffffffffff166108fc829081150290604051600060405180830381858888f19350505050151561069257600080fd5b600191505090565b60036020528060005260406000206000915090505481565b60015481565b6000809054906101000a900473ffffffffffffffffffffffffffffffffffffffff1673ffffffffffffffffffffffffffffffffffffffff163373ffffffffffffffffffffffffffffffffffffffff1614151561071357600080fd5b3373ffffffffffffffffffffffffffffffffffffffff167f7cd531232cf2a935531a2059a1021ee56cecce23e6f421cfa5cb1043fe101ab860405160405180910390a26000809054906101000a900473ffffffffffffffffffffffffffffffffffffffff1673ffffffffffffffffffffffffffffffffffffffff16ff5b600260009054906101000a900460ff1681565b6000809054906101000a900473ffffffffffffffffffffffffffffffffffffffff1681565b6000816040518082805190602001908083835b60208310151561080057805182526020820191506020810190506020830392506107db565b6001836020036101000a038019825116818451168082178552505050505050905001915050604051809103902060001916836040518082805190602001908083835b6020831015156108675780518252602082019150602081019050602083039250610842565b6001836020036101000a038019825116818451168082178552505050505050905001915050604051809103902060001916149050929150505600a165627a7a72305820a06be6649e35a39b52ef297bd17869598a04938bb49ff00a72d5437a5629859a0029",
  "source": "pragma solidity ^0.4.18;\n\n// CHECK - EFFECS - INTEGRATIONS\n\ncontract Remittance {\n    address public owner;\n    bytes32 public puzzle;\n    bool public isPuzzleSolved;\n\n    mapping(address => uint) public balances;\n\n    event LogCreation(address indexed by, uint amount);\n    event LogKill(address indexed by);\n    event LogPuzzleSolve(address indexed by);\n    event LogWithdrawal(address indexed from, address indexed to, uint amount);\n\n    // Constructor\n    function Remittance(string puzzleblock1, string puzzleblock2)\n    payable\n    public {\n        require(msg.value > 0);\n        require(msg.sender != address(0x0));\n\n        require(bytes(puzzleblock1).length > 0);\n        require(bytes(puzzleblock2).length > 0);\n        require(!compareStrings(puzzleblock1, puzzleblock2));\n\n        owner = msg.sender;\n        balances[owner] = msg.value;\n        puzzle = keccak256(puzzleblock1, puzzleblock2);\n\n        emit LogCreation(msg.sender, msg.value);\n    }\n\n    // Fallback function\n    function()\n    public{\n        revert();\n    }\n\n    function submitPasswords(string _puzzleblock1, string _puzzleblock2)\n    public\n    {\n        assert(!isPuzzleSolved);\n        require(msg.sender != address(0x0));\n\n        require(bytes(_puzzleblock1).length > 0);\n        require(bytes(_puzzleblock2).length > 0);\n        require(!compareStrings(_puzzleblock1, _puzzleblock2));\n\n        // Compare input with puzzle, attempt to solve it\n        if(keccak256(_puzzleblock1, _puzzleblock2) == puzzle){\n            isPuzzleSolved = true;\n\n            uint amount = balances[owner];\n\n            balances[owner] = 0;\n            balances[msg.sender] = amount;\n\n            emit LogPuzzleSolve(msg.sender);\n        }\n    }\n\n    // Recipients can use this function to withdraw their part of the payments\n    function withdrawFunds()\n    public\n    returns (bool success){\n        assert(isPuzzleSolved);\n\n        uint amount = balances[msg.sender];\n        require(amount > 0);\n\n        // Remember to zero the pending refund before\n        // sending to prevent re-entrancy attacks\n        balances[msg.sender] = 0;\n        emit LogWithdrawal(msg.sender, msg.sender, amount);\n\n        msg.sender.transfer(amount);\n\n        return true;\n    }\n\n    function compareStrings (string a, string b)\n    private\n    view\n    returns (bool){\n        return keccak256(a) == keccak256(b);\n    }\n\n    function kill()\n    public {\n        require(msg.sender == owner);\n\n        emit LogKill(msg.sender);\n\n        selfdestruct(owner);\n    }\n}\n",
  "sourcePath": "/Users/WWWillems/Dev/DAPPS/02-remittance-contract/contracts/Remittance.sol",
  "compiler": {
    "name": "solc",
    "version": "0.4.21+commit.dfe3193c.Emscripten.clang"
  },
  "schemaVersion": "2.0.0",
  "updatedAt": "2018-04-18T11:51:35.207Z"
}