{
  "contractName": "Remittance",
  "abi": [
    {
      "constant": true,
      "inputs": [
        {
          "name": "",
          "type": "address"
        }
      ],
      "name": "balances",
      "outputs": [
        {
          "name": "",
          "type": "uint256"
        }
      ],
      "payable": false,
      "stateMutability": "view",
      "type": "function"
    },
    {
      "constant": true,
      "inputs": [],
      "name": "puzzle",
      "outputs": [
        {
          "name": "",
          "type": "bytes32"
        }
      ],
      "payable": false,
      "stateMutability": "view",
      "type": "function"
    },
    {
      "constant": true,
      "inputs": [],
      "name": "isPuzzleSolved",
      "outputs": [
        {
          "name": "",
          "type": "bool"
        }
      ],
      "payable": false,
      "stateMutability": "view",
      "type": "function"
    },
    {
      "constant": true,
      "inputs": [],
      "name": "owner",
      "outputs": [
        {
          "name": "",
          "type": "address"
        }
      ],
      "payable": false,
      "stateMutability": "view",
      "type": "function"
    },
    {
      "inputs": [
        {
          "name": "_puzzle",
          "type": "bytes32"
        },
        {
          "name": "recipient",
          "type": "address"
        }
      ],
      "payable": true,
      "stateMutability": "payable",
      "type": "constructor"
    },
    {
      "payable": false,
      "stateMutability": "nonpayable",
      "type": "fallback"
    },
    {
      "anonymous": false,
      "inputs": [
        {
          "indexed": true,
          "name": "by",
          "type": "address"
        },
        {
          "indexed": true,
          "name": "recipient",
          "type": "address"
        },
        {
          "indexed": false,
          "name": "amount",
          "type": "uint256"
        },
        {
          "indexed": false,
          "name": "puzzle",
          "type": "bytes32"
        }
      ],
      "name": "LogCreation",
      "type": "event"
    },
    {
      "anonymous": false,
      "inputs": [
        {
          "indexed": true,
          "name": "by",
          "type": "address"
        }
      ],
      "name": "LogKill",
      "type": "event"
    },
    {
      "anonymous": false,
      "inputs": [
        {
          "indexed": true,
          "name": "by",
          "type": "address"
        },
        {
          "indexed": false,
          "name": "amount",
          "type": "uint256"
        }
      ],
      "name": "LogPuzzleSolve",
      "type": "event"
    },
    {
      "anonymous": false,
      "inputs": [
        {
          "indexed": true,
          "name": "from",
          "type": "address"
        },
        {
          "indexed": true,
          "name": "to",
          "type": "address"
        },
        {
          "indexed": false,
          "name": "amount",
          "type": "uint256"
        }
      ],
      "name": "LogWithdrawal",
      "type": "event"
    },
    {
      "constant": false,
      "inputs": [
        {
          "name": "_password",
          "type": "string"
        }
      ],
      "name": "submitPasswords",
      "outputs": [
        {
          "name": "success",
          "type": "bool"
        }
      ],
      "payable": false,
      "stateMutability": "nonpayable",
      "type": "function"
    },
    {
      "constant": true,
      "inputs": [
        {
          "name": "val",
          "type": "string"
        }
      ],
      "name": "hashVal",
      "outputs": [
        {
          "name": "",
          "type": "bytes32"
        }
      ],
      "payable": false,
      "stateMutability": "pure",
      "type": "function"
    },
    {
      "constant": false,
      "inputs": [],
      "name": "kill",
      "outputs": [],
      "payable": false,
      "stateMutability": "nonpayable",
      "type": "function"
    }
  ],
  "bytecode": "0x60606040526040516040806109eb8339810160405280805190602001909190805190602001909190505060003411151561003857600080fd5b600073ffffffffffffffffffffffffffffffffffffffff163373ffffffffffffffffffffffffffffffffffffffff161415151561007457600080fd5b600073ffffffffffffffffffffffffffffffffffffffff168173ffffffffffffffffffffffffffffffffffffffff16141515156100b057600080fd5b6040518060000190506040518091039020600019168260001916141515156100d757600080fd5b336000806101000a81548173ffffffffffffffffffffffffffffffffffffffff021916908373ffffffffffffffffffffffffffffffffffffffff16021790555034600360008060009054906101000a900473ffffffffffffffffffffffffffffffffffffffff1673ffffffffffffffffffffffffffffffffffffffff1673ffffffffffffffffffffffffffffffffffffffff1681526020019081526020016000208190555081600181600019169055508073ffffffffffffffffffffffffffffffffffffffff163373ffffffffffffffffffffffffffffffffffffffff167f538adc73b1722d013c8e1f762522b44a23532da26bb36e6fb6dcfcb22459acdc346001546040518083815260200182600019166000191681526020019250505060405180910390a350506107dc8061020f6000396000f300606060405260043610610083576000357c0100000000000000000000000000000000000000000000000000000000900463ffffffff16806318906a591461009357806327e235e314610108578063399fac071461015557806341c0e1b514610186578063881079c31461019b5780638da5cb5b146101c8578063d686cf791461021d575b341561008e57600080fd5b600080fd5b341561009e57600080fd5b6100ee600480803590602001908201803590602001908080601f01602080910402602001604051908101604052809392919081815260200183838082843782019150505050505091905050610296565b604051808215151515815260200191505060405180910390f35b341561011357600080fd5b61013f600480803573ffffffffffffffffffffffffffffffffffffffff16906020019091905050610616565b6040518082815260200191505060405180910390f35b341561016057600080fd5b61016861062e565b60405180826000191660001916815260200191505060405180910390f35b341561019157600080fd5b610199610634565b005b34156101a657600080fd5b6101ae61070c565b604051808215151515815260200191505060405180910390f35b34156101d357600080fd5b6101db61071f565b604051808273ffffffffffffffffffffffffffffffffffffffff1673ffffffffffffffffffffffffffffffffffffffff16815260200191505060405180910390f35b341561022857600080fd5b610278600480803590602001908201803590602001908080601f01602080910402602001604051908101604052809392919081815260200183838082843782019150505050505091905050610744565b60405180826000191660001916815260200191505060405180910390f35b600080600260009054906101000a900460ff161515156102b557600080fd5b600083511115156102c557600080fd5b6001546000191683336040518083805190602001908083835b60208310151561030357805182526020820191506020810190506020830392506102de565b6001836020036101000a0380198251168184511680821785525050505050509050018273ffffffffffffffffffffffffffffffffffffffff1673ffffffffffffffffffffffffffffffffffffffff166c010000000000000000000000000281526014019250505060405180910390206000191614151561038257600080fd5b6001600260006101000a81548160ff021916908315150217905550600360008060009054906101000a900473ffffffffffffffffffffffffffffffffffffffff1673ffffffffffffffffffffffffffffffffffffffff1673ffffffffffffffffffffffffffffffffffffffff1681526020019081526020016000205490506000600360008060009054906101000a900473ffffffffffffffffffffffffffffffffffffffff1673ffffffffffffffffffffffffffffffffffffffff1673ffffffffffffffffffffffffffffffffffffffff1681526020019081526020016000208190555080600360003373ffffffffffffffffffffffffffffffffffffffff1673ffffffffffffffffffffffffffffffffffffffff168152602001908152602001600020819055503373ffffffffffffffffffffffffffffffffffffffff167f1dd804397bd6e643576349e9ba1e0f5b35d4f7c5444672b00ed44bf1da577bac826040518082815260200191505060405180910390a2600260009054906101000a900460ff16151561051357600080fd5b60008111151561052257600080fd5b6000600360003373ffffffffffffffffffffffffffffffffffffffff1673ffffffffffffffffffffffffffffffffffffffff168152602001908152602001600020819055503373ffffffffffffffffffffffffffffffffffffffff163373ffffffffffffffffffffffffffffffffffffffff167f0ec497a8ae5b1ba29c60470ef651def995fac3deebbdcc56c47a4e5f51a4c2bd836040518082815260200191505060405180910390a33373ffffffffffffffffffffffffffffffffffffffff166108fc829081150290604051600060405180830381858888f19350505050151561060c57600080fd5b6001915050919050565b60036020528060005260406000206000915090505481565b60015481565b6000809054906101000a900473ffffffffffffffffffffffffffffffffffffffff1673ffffffffffffffffffffffffffffffffffffffff163373ffffffffffffffffffffffffffffffffffffffff1614151561068f57600080fd5b3373ffffffffffffffffffffffffffffffffffffffff167f7cd531232cf2a935531a2059a1021ee56cecce23e6f421cfa5cb1043fe101ab860405160405180910390a26000809054906101000a900473ffffffffffffffffffffffffffffffffffffffff1673ffffffffffffffffffffffffffffffffffffffff16ff5b600260009054906101000a900460ff1681565b6000809054906101000a900473ffffffffffffffffffffffffffffffffffffffff1681565b6000816040518082805190602001908083835b60208310151561077c5780518252602082019150602081019050602083039250610757565b6001836020036101000a038019825116818451168082178552505050505050905001915050604051809103902090509190505600a165627a7a7230582027d082805e29f53b39b121f1665e98a440d7d3c8a7a92f3336b575f646a061170029",
  "source": "pragma solidity ^0.4.18;\n\n// CHECK - EFFECS - INTEGRATIONS\n\ncontract Remittance {\n    address public owner;\n    bytes32 public puzzle;\n    bool public isPuzzleSolved;\n\n    mapping(address => uint) public balances;\n\n    event LogCreation(address indexed by, address indexed recipient, uint amount, bytes32 puzzle);\n    event LogKill(address indexed by);\n    event LogPuzzleSolve(address indexed by, uint amount);\n    event LogWithdrawal(address indexed from, address indexed to, uint amount);\n\n    // Constructor\n    function Remittance(bytes32 _puzzle, address recipient)\n    payable\n    public {\n        require(msg.value > 0);\n        require(msg.sender != address(0x0));\n        require(recipient != address(0x0));\n        require(_puzzle != keccak256(''));\n\n        owner = msg.sender;\n        balances[owner] = msg.value;\n        puzzle = _puzzle;\n\n        emit LogCreation(msg.sender, recipient, msg.value, puzzle);\n    }\n\n    // Fallback function\n    function()\n    public{\n        revert();\n    }\n\n    function submitPasswords(string _password)\n    public\n    returns (bool success)\n    {\n        require(!isPuzzleSolved);\n\n        require(bytes(_password).length > 0);\n\n        // Compare input with puzzle, attempt to solve it\n        require(keccak256(_password, msg.sender) == puzzle);\n\n        isPuzzleSolved = true;\n\n        // Unlock funds from owner->recipient\n        uint amount = balances[owner];\n\n        balances[owner] = 0;\n        balances[msg.sender] = amount;\n\n        emit LogPuzzleSolve(msg.sender, amount);\n\n        // Start withdrawal\n        require(isPuzzleSolved);\n        require(amount > 0);\n\n        // Remember to zero the pending refund before\n        // sending to prevent re-entrancy attacks\n        balances[msg.sender] = 0;\n        emit LogWithdrawal(msg.sender, msg.sender, amount);\n\n        msg.sender.transfer(amount);\n\n        return true;\n    }\n\n    // Lock-in hash function:\n    // If your function is declared as view or pure you can call it from javascript without paying gas,\n    // and it should return   the exact same result that when it is called from inside the contract\n    function hashVal(string val) public pure returns (bytes32) {\n        return keccak256(val);\n    }\n\n    function kill()\n    public {\n        require(msg.sender == owner);\n\n        emit LogKill(msg.sender);\n\n        selfdestruct(owner);\n    }\n}\n",
  "sourcePath": "/Users/WWWillems/Dev/DAPPS/02-remittance-contract/contracts/Remittance.sol",
  "compiler": {
    "name": "solc",
    "version": "0.4.21+commit.dfe3193c.Emscripten.clang"
  },
  "schemaVersion": "2.0.0",
  "updatedAt": "2018-04-24T15:51:23.567Z"
}